{
    "contractName": "DoBuyToken",
    "abi": [
        {
            "inputs": [],
            "stateMutability": "nonpayable",
            "type": "constructor"
        },
        {
            "anonymous": false,
            "inputs": [
                {
                    "indexed": true,
                    "internalType": "address",
                    "name": "owner",
                    "type": "address"
                },
                {
                    "indexed": true,
                    "internalType": "address",
                    "name": "spender",
                    "type": "address"
                },
                {
                    "indexed": false,
                    "internalType": "uint256",
                    "name": "value",
                    "type": "uint256"
                }
            ],
            "name": "Approval",
            "type": "event"
        },
        {
            "anonymous": false,
            "inputs": [
                {
                    "indexed": true,
                    "internalType": "address",
                    "name": "from",
                    "type": "address"
                },
                {
                    "indexed": true,
                    "internalType": "address",
                    "name": "to",
                    "type": "address"
                },
                {
                    "indexed": false,
                    "internalType": "uint256",
                    "name": "value",
                    "type": "uint256"
                }
            ],
            "name": "Transfer",
            "type": "event"
        },
        {
            "inputs": [],
            "name": "INITIAL_SUPPLY",
            "outputs": [
                {
                    "internalType": "uint256",
                    "name": "",
                    "type": "uint256"
                }
            ],
            "stateMutability": "view",
            "type": "function"
        },
        {
            "inputs": [],
            "name": "_decimals",
            "outputs": [
                {
                    "internalType": "uint8",
                    "name": "",
                    "type": "uint8"
                }
            ],
            "stateMutability": "view",
            "type": "function"
        },
        {
            "inputs": [],
            "name": "_symbol",
            "outputs": [
                {
                    "internalType": "string",
                    "name": "",
                    "type": "string"
                }
            ],
            "stateMutability": "view",
            "type": "function"
        },
        {
            "inputs": [],
            "name": "_token",
            "outputs": [
                {
                    "internalType": "string",
                    "name": "",
                    "type": "string"
                }
            ],
            "stateMutability": "view",
            "type": "function"
        },
        {
            "inputs": [
                {
                    "internalType": "address",
                    "name": "owner",
                    "type": "address"
                },
                {
                    "internalType": "address",
                    "name": "spender",
                    "type": "address"
                }
            ],
            "name": "allowance",
            "outputs": [
                {
                    "internalType": "uint256",
                    "name": "",
                    "type": "uint256"
                }
            ],
            "stateMutability": "view",
            "type": "function"
        },
        {
            "inputs": [
                {
                    "internalType": "address",
                    "name": "spender",
                    "type": "address"
                },
                {
                    "internalType": "uint256",
                    "name": "amount",
                    "type": "uint256"
                }
            ],
            "name": "approve",
            "outputs": [
                {
                    "internalType": "bool",
                    "name": "",
                    "type": "bool"
                }
            ],
            "stateMutability": "nonpayable",
            "type": "function"
        },
        {
            "inputs": [
                {
                    "internalType": "address",
                    "name": "account",
                    "type": "address"
                }
            ],
            "name": "balanceOf",
            "outputs": [
                {
                    "internalType": "uint256",
                    "name": "",
                    "type": "uint256"
                }
            ],
            "stateMutability": "view",
            "type": "function"
        },
        {
            "inputs": [],
            "name": "decimals",
            "outputs": [
                {
                    "internalType": "uint8",
                    "name": "",
                    "type": "uint8"
                }
            ],
            "stateMutability": "view",
            "type": "function"
        },
        {
            "inputs": [
                {
                    "internalType": "address",
                    "name": "spender",
                    "type": "address"
                },
                {
                    "internalType": "uint256",
                    "name": "subtractedValue",
                    "type": "uint256"
                }
            ],
            "name": "decreaseAllowance",
            "outputs": [
                {
                    "internalType": "bool",
                    "name": "",
                    "type": "bool"
                }
            ],
            "stateMutability": "nonpayable",
            "type": "function"
        },
        {
            "inputs": [
                {
                    "internalType": "address",
                    "name": "spender",
                    "type": "address"
                },
                {
                    "internalType": "uint256",
                    "name": "addedValue",
                    "type": "uint256"
                }
            ],
            "name": "increaseAllowance",
            "outputs": [
                {
                    "internalType": "bool",
                    "name": "",
                    "type": "bool"
                }
            ],
            "stateMutability": "nonpayable",
            "type": "function"
        },
        {
            "inputs": [],
            "name": "name",
            "outputs": [
                {
                    "internalType": "string",
                    "name": "",
                    "type": "string"
                }
            ],
            "stateMutability": "view",
            "type": "function"
        },
        {
            "inputs": [],
            "name": "symbol",
            "outputs": [
                {
                    "internalType": "string",
                    "name": "",
                    "type": "string"
                }
            ],
            "stateMutability": "view",
            "type": "function"
        },
        {
            "inputs": [],
            "name": "totalSupply",
            "outputs": [
                {
                    "internalType": "uint256",
                    "name": "",
                    "type": "uint256"
                }
            ],
            "stateMutability": "view",
            "type": "function"
        },
        {
            "inputs": [
                {
                    "internalType": "address",
                    "name": "recipient",
                    "type": "address"
                },
                {
                    "internalType": "uint256",
                    "name": "amount",
                    "type": "uint256"
                }
            ],
            "name": "transfer",
            "outputs": [
                {
                    "internalType": "bool",
                    "name": "",
                    "type": "bool"
                }
            ],
            "stateMutability": "nonpayable",
            "type": "function"
        },
        {
            "inputs": [
                {
                    "internalType": "address",
                    "name": "sender",
                    "type": "address"
                },
                {
                    "internalType": "address",
                    "name": "recipient",
                    "type": "address"
                },
                {
                    "internalType": "uint256",
                    "name": "amount",
                    "type": "uint256"
                }
            ],
            "name": "transferFrom",
            "outputs": [
                {
                    "internalType": "bool",
                    "name": "",
                    "type": "bool"
                }
            ],
            "stateMutability": "nonpayable",
            "type": "function"
        },
        {
            "inputs": [],
            "name": "user_wallet",
            "outputs": [
                {
                    "internalType": "address",
                    "name": "",
                    "type": "address"
                }
            ],
            "stateMutability": "view",
            "type": "function"
        }
    ],
    "bytecode": "6080604052600580546001600160a01b031916331790553480156200002357600080fd5b506040518060400160405280600a8152602001692237a13abcaa37b5b2b760b11b8152506040518060400160405280600381526020016211109560ea1b81525081600390805190602001906200007b929190620001af565b50805162000091906004906020840190620001af565b50339150620000c0905081620000aa6012600a620002b9565b620000ba906305f5e10062000384565b620000c7565b50620003f9565b6001600160a01b038216620001225760405162461bcd60e51b815260206004820152601f60248201527f45524332303a206d696e7420746f20746865207a65726f206164647265737300604482015260640160405180910390fd5b806002600082825462000136919062000255565b90915550506001600160a01b038216600090815260208190526040812080548392906200016590849062000255565b90915550506040518181526001600160a01b038316906000907fddf252ad1be2c89b69c2b068fc378daa952ba7f163c4a11628f55a4df523b3ef9060200160405180910390a35050565b828054620001bd90620003a6565b90600052602060002090601f016020900481019282620001e157600085556200022c565b82601f10620001fc57805160ff19168380011785556200022c565b828001600101855582156200022c579182015b828111156200022c5782518255916020019190600101906200020f565b506200023a9291506200023e565b5090565b5b808211156200023a57600081556001016200023f565b600082198211156200026b576200026b620003e3565b500190565b600181815b80851115620002b1578160001904821115620002955762000295620003e3565b80851615620002a357918102915b93841c939080029062000275565b509250929050565b6000620002c78383620002ce565b9392505050565b600082620002df575060016200037e565b81620002ee575060006200037e565b8160018114620003075760028114620003125762000332565b60019150506200037e565b60ff841115620003265762000326620003e3565b50506001821b6200037e565b5060208310610133831016604e8410600b841016171562000357575081810a6200037e565b62000363838362000270565b80600019048211156200037a576200037a620003e3565b0290505b92915050565b6000816000190483118215151615620003a157620003a1620003e3565b500290565b600181811c90821680620003bb57607f821691505b60208210811415620003dd57634e487b7160e01b600052602260045260246000fd5b50919050565b634e487b7160e01b600052601160045260246000fd5b6109aa80620004096000396000f3fe608060405234801561001057600080fd5b50600436106101005760003560e01c806370a0823111610097578063b09f126611610066578063b09f1266146101fd578063c0efbd2a1461021f578063dd62ed3e1461024a578063ecd0c0c31461028357600080fd5b806370a08231146101a657806395d89b41146101cf578063a457c2d7146101d7578063a9059cbb146101ea57600080fd5b80632ff2e9dc116100d35780632ff2e9dc1461016b578063313ce5671461017657806332424aa31461018b578063395093511461019357600080fd5b806306fdde0314610105578063095ea7b31461012357806318160ddd1461014657806323b872dd14610158575b600080fd5b61010d6102ac565b60405161011a91906108be565b60405180910390f35b610136610131366004610894565b61033e565b604051901515815260200161011a565b6002545b60405190815260200161011a565b610136610166366004610858565b610354565b61014a6305f5e10081565b60125b60405160ff909116815260200161011a565b610179601281565b6101366101a1366004610894565b610403565b61014a6101b4366004610803565b6001600160a01b031660009081526020819052604090205490565b61010d61043f565b6101366101e5366004610894565b61044e565b6101366101f8366004610894565b6104e7565b61010d6040518060400160405280600381526020016211109560ea1b81525081565b600554610232906001600160a01b031681565b6040516001600160a01b03909116815260200161011a565b61014a610258366004610825565b6001600160a01b03918216600090815260016020908152604080832093909416825291909152205490565b61010d6040518060400160405280600a8152602001692237a13abcaa37b5b2b760b11b81525081565b6060600380546102bb90610939565b80601f01602080910402602001604051908101604052809291908181526020018280546102e790610939565b80156103345780601f1061030957610100808354040283529160200191610334565b820191906000526020600020905b81548152906001019060200180831161031757829003601f168201915b5050505050905090565b600061034b3384846104f4565b50600192915050565b6000610361848484610618565b6001600160a01b0384166000908152600160209081526040808320338452909152902054828110156103eb5760405162461bcd60e51b815260206004820152602860248201527f45524332303a207472616e7366657220616d6f756e74206578636565647320616044820152676c6c6f77616e636560c01b60648201526084015b60405180910390fd5b6103f885338584036104f4565b506001949350505050565b3360008181526001602090815260408083206001600160a01b0387168452909152812054909161034b91859061043a908690610913565b6104f4565b6060600480546102bb90610939565b3360009081526001602090815260408083206001600160a01b0386168452909152812054828110156104d05760405162461bcd60e51b815260206004820152602560248201527f45524332303a2064656372656173656420616c6c6f77616e63652062656c6f77604482015264207a65726f60d81b60648201526084016103e2565b6104dd33858584036104f4565b5060019392505050565b600061034b338484610618565b6001600160a01b0383166105565760405162461bcd60e51b8152602060048201526024808201527f45524332303a20617070726f76652066726f6d20746865207a65726f206164646044820152637265737360e01b60648201526084016103e2565b6001600160a01b0382166105b75760405162461bcd60e51b815260206004820152602260248201527f45524332303a20617070726f766520746f20746865207a65726f206164647265604482015261737360f01b60648201526084016103e2565b6001600160a01b0383811660008181526001602090815260408083209487168084529482529182902085905590518481527f8c5be1e5ebec7d5bd14f71427d1e84f3dd0314c0f7b2291e5b200ac8c7c3b925910160405180910390a3505050565b6001600160a01b03831661067c5760405162461bcd60e51b815260206004820152602560248201527f45524332303a207472616e736665722066726f6d20746865207a65726f206164604482015264647265737360d81b60648201526084016103e2565b6001600160a01b0382166106de5760405162461bcd60e51b815260206004820152602360248201527f45524332303a207472616e7366657220746f20746865207a65726f206164647260448201526265737360e81b60648201526084016103e2565b6001600160a01b038316600090815260208190526040902054818110156107565760405162461bcd60e51b815260206004820152602660248201527f45524332303a207472616e7366657220616d6f756e7420657863656564732062604482015265616c616e636560d01b60648201526084016103e2565b6001600160a01b0380851660009081526020819052604080822085850390559185168152908120805484929061078d908490610913565b92505081905550826001600160a01b0316846001600160a01b03167fddf252ad1be2c89b69c2b068fc378daa952ba7f163c4a11628f55a4df523b3ef846040516107d991815260200190565b60405180910390a350505050565b80356001600160a01b03811681146107fe57600080fd5b919050565b60006020828403121561081557600080fd5b61081e826107e7565b9392505050565b6000806040838503121561083857600080fd5b610841836107e7565b915061084f602084016107e7565b90509250929050565b60008060006060848603121561086d57600080fd5b610876846107e7565b9250610884602085016107e7565b9150604084013590509250925092565b600080604083850312156108a757600080fd5b6108b0836107e7565b946020939093013593505050565b600060208083528351808285015260005b818110156108eb578581018301518582016040015282016108cf565b818111156108fd576000604083870101525b50601f01601f1916929092016040019392505050565b6000821982111561093457634e487b7160e01b600052601160045260246000fd5b500190565b600181811c9082168061094d57607f821691505b6020821081141561096e57634e487b7160e01b600052602260045260246000fd5b5091905056fea26469706673582212204c2b1314a27356e5ed7e339045b02bb4fc7ad99ffdcff7bbc85f716a290b59b764736f6c63430008070033",
    "sourcePath": "c:/Users/mark146/Documents/hardHat/contracts/UsedMoaToken.sol",
    "compiler": {
        "name": "solc",
        "version": "0.8.7+commit.e28d00a7"
    },
    "functionHashes": {
        "INITIAL_SUPPLY()": "2ff2e9dc",
        "_decimals()": "32424aa3",
        "_symbol()": "b09f1266",
        "_token()": "ecd0c0c3",
        "allowance(address,address)": "dd62ed3e",
        "approve(address,uint256)": "095ea7b3",
        "balanceOf(address)": "70a08231",
        "decimals()": "313ce567",
        "decreaseAllowance(address,uint256)": "a457c2d7",
        "increaseAllowance(address,uint256)": "39509351",
        "name()": "06fdde03",
        "symbol()": "95d89b41",
        "totalSupply()": "18160ddd",
        "transfer(address,uint256)": "a9059cbb",
        "transferFrom(address,address,uint256)": "23b872dd",
        "user_wallet()": "c0efbd2a"
    },
    "gasEstimates": {
        "creation": {
            "codeDepositCost": "494800",
            "executionCost": "infinite",
            "totalCost": "infinite"
        },
        "external": {
            "INITIAL_SUPPLY()": "218",
            "_decimals()": "271",
            "_symbol()": "infinite",
            "_token()": "infinite",
            "allowance(address,address)": "infinite",
            "approve(address,uint256)": "24642",
            "balanceOf(address)": "2563",
            "decimals()": "235",
            "decreaseAllowance(address,uint256)": "26955",
            "increaseAllowance(address,uint256)": "27023",
            "name()": "infinite",
            "symbol()": "infinite",
            "totalSupply()": "2349",
            "transfer(address,uint256)": "51254",
            "transferFrom(address,address,uint256)": "infinite",
            "user_wallet()": "2381"
        }
    }
}