{
    "contractName": "SimpleStoregeUpgrade2",
    "abi": [
        {
            "anonymous": false,
            "inputs": [
                {
                    "indexed": false,
                    "internalType": "string",
                    "name": "message",
                    "type": "string"
                },
                {
                    "indexed": false,
                    "internalType": "uint256",
                    "name": "newVal",
                    "type": "uint256"
                }
            ],
            "name": "Change",
            "type": "event"
        },
        {
            "inputs": [],
            "name": "get",
            "outputs": [
                {
                    "internalType": "uint256",
                    "name": "",
                    "type": "uint256"
                }
            ],
            "stateMutability": "view",
            "type": "function"
        },
        {
            "inputs": [],
            "name": "getKey",
            "outputs": [
                {
                    "internalType": "uint256",
                    "name": "",
                    "type": "uint256"
                }
            ],
            "stateMutability": "view",
            "type": "function"
        },
        {
            "inputs": [
                {
                    "internalType": "uint256",
                    "name": "x",
                    "type": "uint256"
                }
            ],
            "name": "set",
            "outputs": [],
            "stateMutability": "nonpayable",
            "type": "function"
        },
        {
            "inputs": [
                {
                    "internalType": "uint256",
                    "name": "key",
                    "type": "uint256"
                }
            ],
            "name": "setKey",
            "outputs": [],
            "stateMutability": "nonpayable",
            "type": "function"
        }
    ],
    "bytecode": "608060405234801561001057600080fd5b50610287806100206000396000f3fe608060405234801561001057600080fd5b506004361061004c5760003560e01c806360fe47b1146100515780636d4ce63c1461006657806382678dd61461007c578063d652877614610084575b600080fd5b61006461005f3660046101db565b610097565b005b6000545b60405190815260200160405180910390f35b60015461006a565b6100646100923660046101db565b600155565b6100c86040518060400160405280600f81526020016e151a19481d985b1d59481a5cc80959608a1b81525082610171565b612710811061011d5760405162461bcd60e51b815260206004820152601960248201527f53686f756c64206265206c657373207468616e20313030303000000000000000604482015260640160405180910390fd5b600081905560408051818152600381830152621cd95d60ea1b60608201526020810183905290517fbb1cb5be1009ed69d54a8f3da20ed253be50c4dbbcade4f0a12114dedd9be5d79181900360800190a150565b6101b682826040516024016101879291906101f4565b60408051601f198184030181529190526020810180516001600160e01b03166309710a9d60e41b1790526101ba565b5050565b80516a636f6e736f6c652e6c6f67602083016000808483855afa5050505050565b6000602082840312156101ed57600080fd5b5035919050565b604081526000835180604084015260005b818110156102225760208187018101516060868401015201610205565b81811115610234576000606083860101525b50602083019390935250601f91909101601f19160160600191905056fea2646970667358221220f3c4a0d3058a9bc0355c2e1f5efc5a90fb1ccd1217b27c77f5828928836f5d9664736f6c63430008070033",
    "sourcePath": "c:/Users/mark146/Documents/hardHat/contracts/SimpleStoregeUpgrade2.sol",
    "compiler": {
        "name": "solc",
        "version": "0.8.7+commit.e28d00a7"
    },
    "functionHashes": {
        "get()": "6d4ce63c",
        "getKey()": "82678dd6",
        "set(uint256)": "60fe47b1",
        "setKey(uint256)": "d6528776"
    },
    "gasEstimates": {
        "creation": {
            "codeDepositCost": "129400",
            "executionCost": "177",
            "totalCost": "129577"
        },
        "external": {
            "get()": "2269",
            "getKey()": "2302",
            "set(uint256)": "infinite",
            "setKey(uint256)": "22356"
        }
    }
}