{
    "contractName": "UsedMoaToken",
    "abi": [
        {
            "inputs": [],
            "stateMutability": "nonpayable",
            "type": "constructor"
        },
        {
            "anonymous": false,
            "inputs": [
                {
                    "indexed": true,
                    "internalType": "address",
                    "name": "owner",
                    "type": "address"
                },
                {
                    "indexed": true,
                    "internalType": "address",
                    "name": "spender",
                    "type": "address"
                },
                {
                    "indexed": false,
                    "internalType": "uint256",
                    "name": "value",
                    "type": "uint256"
                }
            ],
            "name": "Approval",
            "type": "event"
        },
        {
            "anonymous": false,
            "inputs": [
                {
                    "indexed": false,
                    "internalType": "address",
                    "name": "from",
                    "type": "address"
                },
                {
                    "indexed": false,
                    "internalType": "address",
                    "name": "to",
                    "type": "address"
                },
                {
                    "indexed": false,
                    "internalType": "uint256",
                    "name": "amount",
                    "type": "uint256"
                }
            ],
            "name": "SendToken",
            "type": "event"
        },
        {
            "anonymous": false,
            "inputs": [
                {
                    "indexed": true,
                    "internalType": "address",
                    "name": "from",
                    "type": "address"
                },
                {
                    "indexed": true,
                    "internalType": "address",
                    "name": "to",
                    "type": "address"
                },
                {
                    "indexed": false,
                    "internalType": "uint256",
                    "name": "value",
                    "type": "uint256"
                }
            ],
            "name": "Transfer",
            "type": "event"
        },
        {
            "inputs": [],
            "name": "INITIAL_SUPPLY",
            "outputs": [
                {
                    "internalType": "uint256",
                    "name": "",
                    "type": "uint256"
                }
            ],
            "stateMutability": "view",
            "type": "function"
        },
        {
            "inputs": [],
            "name": "_decimals",
            "outputs": [
                {
                    "internalType": "uint8",
                    "name": "",
                    "type": "uint8"
                }
            ],
            "stateMutability": "view",
            "type": "function"
        },
        {
            "inputs": [],
            "name": "_symbol",
            "outputs": [
                {
                    "internalType": "string",
                    "name": "",
                    "type": "string"
                }
            ],
            "stateMutability": "view",
            "type": "function"
        },
        {
            "inputs": [],
            "name": "_token",
            "outputs": [
                {
                    "internalType": "string",
                    "name": "",
                    "type": "string"
                }
            ],
            "stateMutability": "view",
            "type": "function"
        },
        {
            "inputs": [
                {
                    "internalType": "address",
                    "name": "owner",
                    "type": "address"
                },
                {
                    "internalType": "address",
                    "name": "spender",
                    "type": "address"
                }
            ],
            "name": "allowance",
            "outputs": [
                {
                    "internalType": "uint256",
                    "name": "",
                    "type": "uint256"
                }
            ],
            "stateMutability": "view",
            "type": "function"
        },
        {
            "inputs": [
                {
                    "internalType": "address",
                    "name": "spender",
                    "type": "address"
                },
                {
                    "internalType": "uint256",
                    "name": "amount",
                    "type": "uint256"
                }
            ],
            "name": "approve",
            "outputs": [
                {
                    "internalType": "bool",
                    "name": "",
                    "type": "bool"
                }
            ],
            "stateMutability": "nonpayable",
            "type": "function"
        },
        {
            "inputs": [
                {
                    "internalType": "address",
                    "name": "account",
                    "type": "address"
                }
            ],
            "name": "balanceOf",
            "outputs": [
                {
                    "internalType": "uint256",
                    "name": "",
                    "type": "uint256"
                }
            ],
            "stateMutability": "view",
            "type": "function"
        },
        {
            "inputs": [
                {
                    "internalType": "address",
                    "name": "",
                    "type": "address"
                }
            ],
            "name": "cancelAmount",
            "outputs": [
                {
                    "internalType": "uint256",
                    "name": "",
                    "type": "uint256"
                }
            ],
            "stateMutability": "view",
            "type": "function"
        },
        {
            "inputs": [],
            "name": "decimals",
            "outputs": [
                {
                    "internalType": "uint8",
                    "name": "",
                    "type": "uint8"
                }
            ],
            "stateMutability": "view",
            "type": "function"
        },
        {
            "inputs": [
                {
                    "internalType": "address",
                    "name": "spender",
                    "type": "address"
                },
                {
                    "internalType": "uint256",
                    "name": "subtractedValue",
                    "type": "uint256"
                }
            ],
            "name": "decreaseAllowance",
            "outputs": [
                {
                    "internalType": "bool",
                    "name": "",
                    "type": "bool"
                }
            ],
            "stateMutability": "nonpayable",
            "type": "function"
        },
        {
            "inputs": [
                {
                    "internalType": "address",
                    "name": "wallet",
                    "type": "address"
                }
            ],
            "name": "getBalance",
            "outputs": [
                {
                    "internalType": "uint256",
                    "name": "",
                    "type": "uint256"
                }
            ],
            "stateMutability": "view",
            "type": "function"
        },
        {
            "inputs": [
                {
                    "internalType": "address",
                    "name": "spender",
                    "type": "address"
                },
                {
                    "internalType": "uint256",
                    "name": "addedValue",
                    "type": "uint256"
                }
            ],
            "name": "increaseAllowance",
            "outputs": [
                {
                    "internalType": "bool",
                    "name": "",
                    "type": "bool"
                }
            ],
            "stateMutability": "nonpayable",
            "type": "function"
        },
        {
            "inputs": [],
            "name": "name",
            "outputs": [
                {
                    "internalType": "string",
                    "name": "",
                    "type": "string"
                }
            ],
            "stateMutability": "view",
            "type": "function"
        },
        {
            "inputs": [
                {
                    "internalType": "address",
                    "name": "",
                    "type": "address"
                }
            ],
            "name": "sendAmount",
            "outputs": [
                {
                    "internalType": "uint256",
                    "name": "",
                    "type": "uint256"
                }
            ],
            "stateMutability": "view",
            "type": "function"
        },
        {
            "inputs": [
                {
                    "internalType": "address",
                    "name": "_to",
                    "type": "address"
                },
                {
                    "internalType": "uint256",
                    "name": "_amount",
                    "type": "uint256"
                }
            ],
            "name": "sendTokens",
            "outputs": [],
            "stateMutability": "nonpayable",
            "type": "function"
        },
        {
            "inputs": [],
            "name": "symbol",
            "outputs": [
                {
                    "internalType": "string",
                    "name": "",
                    "type": "string"
                }
            ],
            "stateMutability": "view",
            "type": "function"
        },
        {
            "inputs": [
                {
                    "internalType": "address",
                    "name": "from",
                    "type": "address"
                },
                {
                    "internalType": "uint256",
                    "name": "_amount",
                    "type": "uint256"
                }
            ],
            "name": "tokenBurn",
            "outputs": [],
            "stateMutability": "nonpayable",
            "type": "function"
        },
        {
            "inputs": [
                {
                    "internalType": "address",
                    "name": "to",
                    "type": "address"
                },
                {
                    "internalType": "uint256",
                    "name": "_amount",
                    "type": "uint256"
                }
            ],
            "name": "tokenMint",
            "outputs": [],
            "stateMutability": "nonpayable",
            "type": "function"
        },
        {
            "inputs": [],
            "name": "tokenName",
            "outputs": [
                {
                    "internalType": "string",
                    "name": "",
                    "type": "string"
                }
            ],
            "stateMutability": "pure",
            "type": "function"
        },
        {
            "inputs": [
                {
                    "internalType": "address",
                    "name": "_from",
                    "type": "address"
                },
                {
                    "internalType": "address",
                    "name": "_to",
                    "type": "address"
                },
                {
                    "internalType": "uint256",
                    "name": "_amount",
                    "type": "uint256"
                }
            ],
            "name": "tokenPause",
            "outputs": [],
            "stateMutability": "nonpayable",
            "type": "function"
        },
        {
            "inputs": [],
            "name": "totalSupply",
            "outputs": [
                {
                    "internalType": "uint256",
                    "name": "",
                    "type": "uint256"
                }
            ],
            "stateMutability": "view",
            "type": "function"
        },
        {
            "inputs": [
                {
                    "internalType": "address",
                    "name": "recipient",
                    "type": "address"
                },
                {
                    "internalType": "uint256",
                    "name": "amount",
                    "type": "uint256"
                }
            ],
            "name": "transfer",
            "outputs": [
                {
                    "internalType": "bool",
                    "name": "",
                    "type": "bool"
                }
            ],
            "stateMutability": "nonpayable",
            "type": "function"
        },
        {
            "inputs": [
                {
                    "internalType": "address",
                    "name": "sender",
                    "type": "address"
                },
                {
                    "internalType": "address",
                    "name": "recipient",
                    "type": "address"
                },
                {
                    "internalType": "uint256",
                    "name": "amount",
                    "type": "uint256"
                }
            ],
            "name": "transferFrom",
            "outputs": [
                {
                    "internalType": "bool",
                    "name": "",
                    "type": "bool"
                }
            ],
            "stateMutability": "nonpayable",
            "type": "function"
        },
        {
            "inputs": [],
            "name": "user_wallet",
            "outputs": [
                {
                    "internalType": "address",
                    "name": "",
                    "type": "address"
                }
            ],
            "stateMutability": "view",
            "type": "function"
        }
    ],
    "bytecode": "6080604052600580546001600160a01b031916331790553480156200002357600080fd5b506040518060400160405280600c81526020016b2ab9b2b226b7b0aa37b5b2b760a11b8152506040518060400160405280600381526020016215535560ea1b81525081600390805190602001906200007d929190620001a0565b50805162000093906004906020840190620001a0565b50339150620000b19050816b0813f3978f89409844000000620000b8565b50620002aa565b6001600160a01b038216620001135760405162461bcd60e51b815260206004820152601f60248201527f45524332303a206d696e7420746f20746865207a65726f206164647265737300604482015260640160405180910390fd5b806002600082825462000127919062000246565b90915550506001600160a01b038216600090815260208190526040812080548392906200015690849062000246565b90915550506040518181526001600160a01b038316906000907fddf252ad1be2c89b69c2b068fc378daa952ba7f163c4a11628f55a4df523b3ef9060200160405180910390a35050565b828054620001ae906200026d565b90600052602060002090601f016020900481019282620001d257600085556200021d565b82601f10620001ed57805160ff19168380011785556200021d565b828001600101855582156200021d579182015b828111156200021d57825182559160200191906001019062000200565b506200022b9291506200022f565b5090565b5b808211156200022b576000815560010162000230565b600082198211156200026857634e487b7160e01b600052601160045260246000fd5b500190565b600181811c908216806200028257607f821691505b60208210811415620002a457634e487b7160e01b600052602260045260246000fd5b50919050565b610e3f80620002ba6000396000f3fe608060405234801561001057600080fd5b50600436106101585760003560e01c80636c02a931116100c3578063c0efbd2a1161007c578063c0efbd2a1461030f578063dd62ed3e1461033a578063ecd0c0c314610373578063eef892aa1461039e578063f88d7f31146103b1578063f8b2cb4f1461029657600080fd5b80636c02a9311461026e57806370a082311461029657806395d89b41146102bf578063a457c2d7146102c7578063a9059cbb146102da578063b09f1266146102ed57600080fd5b806323b872dd1161011557806323b872dd146101f85780632ff2e9dc1461020b578063313ce5671461021e57806332424aa31461023357806332d2f4911461023b578063395093511461025b57600080fd5b806305ab421d1461015d57806306fdde0314610172578063095ea7b3146101905780631682af11146101b357806318160ddd146101c6578063210cb8c3146101d8575b600080fd5b61017061016b366004610d0a565b6103c4565b005b61017a6104b0565b6040516101879190610d34565b60405180910390f35b6101a361019e366004610d0a565b610542565b6040519015158152602001610187565b6101706101c1366004610cce565b610558565b6002545b604051908152602001610187565b6101ca6101e6366004610c79565b60086020526000908152604090205481565b6101a3610206366004610cce565b61058a565b6101ca6b0813f3978f8940984400000081565b60125b60405160ff9091168152602001610187565b610221601281565b6101ca610249366004610c79565b60096020526000908152604090205481565b6101a3610269366004610d0a565b610634565b60408051808201909152600c81526b2ab9b2b226b7b0aa37b5b2b760a11b602082015261017a565b6101ca6102a4366004610c79565b6001600160a01b031660009081526020819052604090205490565b61017a610670565b6101a36102d5366004610d0a565b61067f565b6101a36102e8366004610d0a565b610718565b61017a6040518060400160405280600381526020016215535560ea1b81525081565b600554610322906001600160a01b031681565b6040516001600160a01b039091168152602001610187565b6101ca610348366004610c9b565b6001600160a01b03918216600090815260016020908152604080832093909416825291909152205490565b61017a6040518060400160405280600c81526020016b2ab9b2b226b7b0aa37b5b2b760a11b81525081565b6101706103ac366004610d0a565b610725565b6101706103bf366004610d0a565b610733565b6005546001600160a01b03166000908152602081905260409020548111156104245760405162461bcd60e51b815260206004820152600e60248201526d139bdd08115b9bdd59da0815535560921b60448201526064015b60405180910390fd5b61042e8282610718565b506005546001600160a01b031660009081526008602052604081208054839290610459908490610d89565b9091555050600554604080516001600160a01b039283168152918416602083015281018290527ff91179ed40193440f3f022c5755e0fc1c4b1fb78b129dd47b3c465276c070fd39060600160405180910390a15050565b6060600380546104bf90610db8565b80601f01602080910402602001604051908101604052809291908181526020018280546104eb90610db8565b80156105385780601f1061050d57610100808354040283529160200191610538565b820191906000526020600020905b81548152906001019060200180831161051b57829003601f168201915b5050505050905090565b600061054f33848461073d565b50600192915050565b6001600160a01b03831660009081526009602052604081208054839290610580908490610da1565b9091555050505050565b6000610597848484610861565b6001600160a01b03841660009081526001602090815260408083203384529091529020548281101561061c5760405162461bcd60e51b815260206004820152602860248201527f45524332303a207472616e7366657220616d6f756e74206578636565647320616044820152676c6c6f77616e636560c01b606482015260840161041b565b610629853385840361073d565b506001949350505050565b3360008181526001602090815260408083206001600160a01b0387168452909152812054909161054f91859061066b908690610d89565b61073d565b6060600480546104bf90610db8565b3360009081526001602090815260408083206001600160a01b0386168452909152812054828110156107015760405162461bcd60e51b815260206004820152602560248201527f45524332303a2064656372656173656420616c6c6f77616e63652062656c6f77604482015264207a65726f60d81b606482015260840161041b565b61070e338585840361073d565b5060019392505050565b600061054f338484610861565b61072f8282610a30565b5050565b61072f8282610b0f565b6001600160a01b03831661079f5760405162461bcd60e51b8152602060048201526024808201527f45524332303a20617070726f76652066726f6d20746865207a65726f206164646044820152637265737360e01b606482015260840161041b565b6001600160a01b0382166108005760405162461bcd60e51b815260206004820152602260248201527f45524332303a20617070726f766520746f20746865207a65726f206164647265604482015261737360f01b606482015260840161041b565b6001600160a01b0383811660008181526001602090815260408083209487168084529482529182902085905590518481527f8c5be1e5ebec7d5bd14f71427d1e84f3dd0314c0f7b2291e5b200ac8c7c3b925910160405180910390a3505050565b6001600160a01b0383166108c55760405162461bcd60e51b815260206004820152602560248201527f45524332303a207472616e736665722066726f6d20746865207a65726f206164604482015264647265737360d81b606482015260840161041b565b6001600160a01b0382166109275760405162461bcd60e51b815260206004820152602360248201527f45524332303a207472616e7366657220746f20746865207a65726f206164647260448201526265737360e81b606482015260840161041b565b6001600160a01b0383166000908152602081905260409020548181101561099f5760405162461bcd60e51b815260206004820152602660248201527f45524332303a207472616e7366657220616d6f756e7420657863656564732062604482015265616c616e636560d01b606482015260840161041b565b6001600160a01b038085166000908152602081905260408082208585039055918516815290812080548492906109d6908490610d89565b92505081905550826001600160a01b0316846001600160a01b03167fddf252ad1be2c89b69c2b068fc378daa952ba7f163c4a11628f55a4df523b3ef84604051610a2291815260200190565b60405180910390a350505050565b6001600160a01b038216610a865760405162461bcd60e51b815260206004820152601f60248201527f45524332303a206d696e7420746f20746865207a65726f206164647265737300604482015260640161041b565b8060026000828254610a989190610d89565b90915550506001600160a01b03821660009081526020819052604081208054839290610ac5908490610d89565b90915550506040518181526001600160a01b038316906000907fddf252ad1be2c89b69c2b068fc378daa952ba7f163c4a11628f55a4df523b3ef9060200160405180910390a35050565b6001600160a01b038216610b6f5760405162461bcd60e51b815260206004820152602160248201527f45524332303a206275726e2066726f6d20746865207a65726f206164647265736044820152607360f81b606482015260840161041b565b6001600160a01b03821660009081526020819052604090205481811015610be35760405162461bcd60e51b815260206004820152602260248201527f45524332303a206275726e20616d6f756e7420657863656564732062616c616e604482015261636560f01b606482015260840161041b565b6001600160a01b0383166000908152602081905260408120838303905560028054849290610c12908490610da1565b90915550506040518281526000906001600160a01b038516907fddf252ad1be2c89b69c2b068fc378daa952ba7f163c4a11628f55a4df523b3ef9060200160405180910390a3505050565b80356001600160a01b0381168114610c7457600080fd5b919050565b600060208284031215610c8b57600080fd5b610c9482610c5d565b9392505050565b60008060408385031215610cae57600080fd5b610cb783610c5d565b9150610cc560208401610c5d565b90509250929050565b600080600060608486031215610ce357600080fd5b610cec84610c5d565b9250610cfa60208501610c5d565b9150604084013590509250925092565b60008060408385031215610d1d57600080fd5b610d2683610c5d565b946020939093013593505050565b600060208083528351808285015260005b81811015610d6157858101830151858201604001528201610d45565b81811115610d73576000604083870101525b50601f01601f1916929092016040019392505050565b60008219821115610d9c57610d9c610df3565b500190565b600082821015610db357610db3610df3565b500390565b600181811c90821680610dcc57607f821691505b60208210811415610ded57634e487b7160e01b600052602260045260246000fd5b50919050565b634e487b7160e01b600052601160045260246000fdfea264697066735822122070c5e6e56f4ed70ab7c5f557f885da2109865527227fddf6a32f1f4e16940d7764736f6c63430008070033",
    "sourcePath": "c:/Users/mark146/Documents/hardHat/contracts/UsedMoaToken.sol",
    "compiler": {
        "name": "solc",
        "version": "0.8.7+commit.e28d00a7"
    },
    "functionHashes": {
        "INITIAL_SUPPLY()": "2ff2e9dc",
        "_decimals()": "32424aa3",
        "_symbol()": "b09f1266",
        "_token()": "ecd0c0c3",
        "allowance(address,address)": "dd62ed3e",
        "approve(address,uint256)": "095ea7b3",
        "balanceOf(address)": "70a08231",
        "cancelAmount(address)": "32d2f491",
        "decimals()": "313ce567",
        "decreaseAllowance(address,uint256)": "a457c2d7",
        "getBalance(address)": "f8b2cb4f",
        "increaseAllowance(address,uint256)": "39509351",
        "name()": "06fdde03",
        "sendAmount(address)": "210cb8c3",
        "sendTokens(address,uint256)": "05ab421d",
        "symbol()": "95d89b41",
        "tokenBurn(address,uint256)": "f88d7f31",
        "tokenMint(address,uint256)": "eef892aa",
        "tokenName()": "6c02a931",
        "tokenPause(address,address,uint256)": "1682af11",
        "totalSupply()": "18160ddd",
        "transfer(address,uint256)": "a9059cbb",
        "transferFrom(address,address,uint256)": "23b872dd",
        "user_wallet()": "c0efbd2a"
    },
    "gasEstimates": {
        "creation": {
            "codeDepositCost": "729400",
            "executionCost": "infinite",
            "totalCost": "infinite"
        },
        "external": {
            "INITIAL_SUPPLY()": "240",
            "_decimals()": "293",
            "_symbol()": "infinite",
            "_token()": "infinite",
            "allowance(address,address)": "infinite",
            "approve(address,uint256)": "24664",
            "balanceOf(address)": "2585",
            "cancelAmount(address)": "2630",
            "decimals()": "257",
            "decreaseAllowance(address,uint256)": "26977",
            "getBalance(address)": "2672",
            "increaseAllowance(address,uint256)": "27067",
            "name()": "infinite",
            "sendAmount(address)": "2653",
            "sendTokens(address,uint256)": "infinite",
            "symbol()": "infinite",
            "tokenBurn(address,uint256)": "51064",
            "tokenMint(address,uint256)": "infinite",
            "tokenName()": "infinite",
            "tokenPause(address,address,uint256)": "infinite",
            "totalSupply()": "2393",
            "transfer(address,uint256)": "51276",
            "transferFrom(address,address,uint256)": "infinite",
            "user_wallet()": "2359"
        }
    }
}